{
  "contractName": "AssetTokenization",
  "abi": [
    {
      "inputs": [],
      "stateMutability": "nonpayable",
      "type": "constructor"
    },
    {
      "anonymous": false,
      "inputs": [
        {
          "indexed": false,
          "internalType": "string",
          "name": "assetId",
          "type": "string"
        },
        {
          "indexed": false,
          "internalType": "address",
          "name": "owner",
          "type": "address"
        }
      ],
      "name": "AssetRegistered",
      "type": "event"
    },
    {
      "anonymous": false,
      "inputs": [
        {
          "indexed": false,
          "internalType": "string",
          "name": "assetId",
          "type": "string"
        },
        {
          "indexed": false,
          "internalType": "address",
          "name": "owner",
          "type": "address"
        }
      ],
      "name": "AssetTokenized",
      "type": "event"
    },
    {
      "inputs": [
        {
          "internalType": "string",
          "name": "",
          "type": "string"
        }
      ],
      "name": "assets",
      "outputs": [
        {
          "internalType": "string",
          "name": "assetId",
          "type": "string"
        },
        {
          "internalType": "address",
          "name": "owner",
          "type": "address"
        },
        {
          "internalType": "bool",
          "name": "isTokenized",
          "type": "bool"
        },
        {
          "internalType": "string",
          "name": "assetType",
          "type": "string"
        }
      ],
      "stateMutability": "view",
      "type": "function"
    },
    {
      "inputs": [
        {
          "internalType": "string",
          "name": "assetId",
          "type": "string"
        },
        {
          "internalType": "address",
          "name": "owner",
          "type": "address"
        },
        {
          "internalType": "string",
          "name": "assetType",
          "type": "string"
        }
      ],
      "name": "registerAsset",
      "outputs": [],
      "stateMutability": "nonpayable",
      "type": "function"
    },
    {
      "inputs": [
        {
          "internalType": "string",
          "name": "assetId",
          "type": "string"
        }
      ],
      "name": "tokenizeAsset",
      "outputs": [],
      "stateMutability": "nonpayable",
      "type": "function"
    },
    {
      "inputs": [
        {
          "internalType": "string",
          "name": "assetId",
          "type": "string"
        }
      ],
      "name": "isAssetTokenized",
      "outputs": [
        {
          "internalType": "bool",
          "name": "",
          "type": "bool"
        }
      ],
      "stateMutability": "view",
      "type": "function"
    }
  ],
  "bytecode": "0x608060405234801561000f575f80fd5b50610e658061001d5f395ff3fe608060405234801561000f575f80fd5b506004361061004a575f3560e01c806371982e7e1461004e578063859362281461007e578063a5a6f96c146100b1578063b0f51c12146100cd575b5f80fd5b6100686004803603810190610063919061074b565b6100e9565b60405161007591906107ac565b60405180910390f35b6100986004803603810190610093919061074b565b61011f565b6040516100a8949392919061087e565b60405180910390f35b6100cb60048036038101906100c691906108f9565b61029a565b005b6100e760048036038101906100e2919061074b565b61046e565b005b5f80826040516100f991906109bb565b908152602001604051809103902060010160149054906101000a900460ff169050919050565b5f818051602081018201805184825260208301602085012081835280955050505050505f91509050805f018054610155906109fe565b80601f0160208091040260200160405190810160405280929190818152602001828054610181906109fe565b80156101cc5780601f106101a3576101008083540402835291602001916101cc565b820191905f5260205f20905b8154815290600101906020018083116101af57829003601f168201915b505050505090806001015f9054906101000a900473ffffffffffffffffffffffffffffffffffffffff16908060010160149054906101000a900460ff1690806002018054610219906109fe565b80601f0160208091040260200160405190810160405280929190818152602001828054610245906109fe565b80156102905780601f1061026757610100808354040283529160200191610290565b820191905f5260205f20905b81548152906001019060200180831161027357829003601f168201915b5050505050905084565b5f73ffffffffffffffffffffffffffffffffffffffff165f846040516102c091906109bb565b90815260200160405180910390206001015f9054906101000a900473ffffffffffffffffffffffffffffffffffffffff1673ffffffffffffffffffffffffffffffffffffffff1614610347576040517f08c379a000000000000000000000000000000000000000000000000000000000815260040161033e90610a78565b60405180910390fd5b60405180608001604052808481526020018373ffffffffffffffffffffffffffffffffffffffff1681526020015f15158152602001828152505f8460405161038f91906109bb565b90815260200160405180910390205f820151815f0190816103b09190610c3c565b506020820151816001015f6101000a81548173ffffffffffffffffffffffffffffffffffffffff021916908373ffffffffffffffffffffffffffffffffffffffff16021790555060408201518160010160146101000a81548160ff021916908315150217905550606082015181600201908161042c9190610c3c565b509050507f3660b9d6c78cc82ab7177ce73afc0d18a4445a81493b7f4457bf837ccf6ede8e8383604051610461929190610d0b565b60405180910390a1505050565b3373ffffffffffffffffffffffffffffffffffffffff165f8260405161049491906109bb565b90815260200160405180910390206001015f9054906101000a900473ffffffffffffffffffffffffffffffffffffffff1673ffffffffffffffffffffffffffffffffffffffff161461051b576040517f08c379a000000000000000000000000000000000000000000000000000000000815260040161051290610da9565b60405180910390fd5b5f8160405161052a91906109bb565b908152602001604051809103902060010160149054906101000a900460ff1615610589576040517f08c379a000000000000000000000000000000000000000000000000000000000815260040161058090610e11565b60405180910390fd5b60015f8260405161059a91906109bb565b908152602001604051809103902060010160146101000a81548160ff0219169083151502179055507f70e24291736a2efe82a5cabb5cb66babcc38d917e0de07a29f6766fc12f5986481336040516105f3929190610d0b565b60405180910390a150565b5f604051905090565b5f80fd5b5f80fd5b5f80fd5b5f80fd5b5f601f19601f8301169050919050565b7f4e487b71000000000000000000000000000000000000000000000000000000005f52604160045260245ffd5b61065d82610617565b810181811067ffffffffffffffff8211171561067c5761067b610627565b5b80604052505050565b5f61068e6105fe565b905061069a8282610654565b919050565b5f67ffffffffffffffff8211156106b9576106b8610627565b5b6106c282610617565b9050602081019050919050565b828183375f83830152505050565b5f6106ef6106ea8461069f565b610685565b90508281526020810184848401111561070b5761070a610613565b5b6107168482856106cf565b509392505050565b5f82601f8301126107325761073161060f565b5b81356107428482602086016106dd565b91505092915050565b5f602082840312156107605761075f610607565b5b5f82013567ffffffffffffffff81111561077d5761077c61060b565b5b6107898482850161071e565b91505092915050565b5f8115159050919050565b6107a681610792565b82525050565b5f6020820190506107bf5f83018461079d565b92915050565b5f81519050919050565b5f82825260208201905092915050565b5f5b838110156107fc5780820151818401526020810190506107e1565b5f8484015250505050565b5f610811826107c5565b61081b81856107cf565b935061082b8185602086016107df565b61083481610617565b840191505092915050565b5f73ffffffffffffffffffffffffffffffffffffffff82169050919050565b5f6108688261083f565b9050919050565b6108788161085e565b82525050565b5f6080820190508181035f8301526108968187610807565b90506108a5602083018661086f565b6108b2604083018561079d565b81810360608301526108c48184610807565b905095945050505050565b6108d88161085e565b81146108e2575f80fd5b50565b5f813590506108f3816108cf565b92915050565b5f805f606084860312156109105761090f610607565b5b5f84013567ffffffffffffffff81111561092d5761092c61060b565b5b6109398682870161071e565b935050602061094a868287016108e5565b925050604084013567ffffffffffffffff81111561096b5761096a61060b565b5b6109778682870161071e565b9150509250925092565b5f81905092915050565b5f610995826107c5565b61099f8185610981565b93506109af8185602086016107df565b80840191505092915050565b5f6109c6828461098b565b915081905092915050565b7f4e487b71000000000000000000000000000000000000000000000000000000005f52602260045260245ffd5b5f6002820490506001821680610a1557607f821691505b602082108103610a2857610a276109d1565b5b50919050565b7f417373657420616c7265616479207265676973746572656400000000000000005f82015250565b5f610a626018836107cf565b9150610a6d82610a2e565b602082019050919050565b5f6020820190508181035f830152610a8f81610a56565b9050919050565b5f819050815f5260205f209050919050565b5f6020601f8301049050919050565b5f82821b905092915050565b5f60088302610af27fffffffffffffffffffffffffffffffffffffffffffffffffffffffffffffffff82610ab7565b610afc8683610ab7565b95508019841693508086168417925050509392505050565b5f819050919050565b5f819050919050565b5f610b40610b3b610b3684610b14565b610b1d565b610b14565b9050919050565b5f819050919050565b610b5983610b26565b610b6d610b6582610b47565b848454610ac3565b825550505050565b5f90565b610b81610b75565b610b8c818484610b50565b505050565b5b81811015610baf57610ba45f82610b79565b600181019050610b92565b5050565b601f821115610bf457610bc581610a96565b610bce84610aa8565b81016020851015610bdd578190505b610bf1610be985610aa8565b830182610b91565b50505b505050565b5f82821c905092915050565b5f610c145f1984600802610bf9565b1980831691505092915050565b5f610c2c8383610c05565b9150826002028217905092915050565b610c45826107c5565b67ffffffffffffffff811115610c5e57610c5d610627565b5b610c6882546109fe565b610c73828285610bb3565b5f60209050601f831160018114610ca4575f8415610c92578287015190505b610c9c8582610c21565b865550610d03565b601f198416610cb286610a96565b5f5b82811015610cd957848901518255600182019150602085019450602081019050610cb4565b86831015610cf65784890151610cf2601f891682610c05565b8355505b6001600288020188555050505b505050505050565b5f6040820190508181035f830152610d238185610807565b9050610d32602083018461086f565b9392505050565b7f4f6e6c7920746865206f776e65722063616e20746f6b656e697a6520746865205f8201527f6173736574000000000000000000000000000000000000000000000000000000602082015250565b5f610d936025836107cf565b9150610d9e82610d39565b604082019050919050565b5f6020820190508181035f830152610dc081610d87565b9050919050565b7f417373657420697320616c726561647920746f6b656e697a65640000000000005f82015250565b5f610dfb601a836107cf565b9150610e0682610dc7565b602082019050919050565b5f6020820190508181035f830152610e2881610def565b905091905056fea26469706673582212200dafb71e0a3365ef4b134d0d427cc929fbf71ef7526f18a1c22eb71be9b9ac0464736f6c63430008150033",
  "immutableReferences": {},
  "source": "// SPDX-License-Identifier: MIT\r\npragma solidity >=0.4.22 <0.9.0;\r\n\r\ncontract AssetTokenization {\r\n    struct Asset {\r\n        string assetId; // Unique identifier for the asset (e.g., VIN for cars, property ID for houses)\r\n        address owner;  // Owner of the asset\r\n        bool isTokenized; // Indicates if the asset is already tokenized\r\n        string assetType; // Type of the asset (e.g., house, car, land)\r\n        //TODO: Add additional fields for the asset\r\n    }\r\n    // Mapping from assetId to Asset\r\n    mapping(string => Asset) public assets;\r\n\r\n    event AssetRegistered(string assetId, address owner);\r\n    event AssetTokenized(string assetId, address owner);\r\n\r\n    constructor(){\r\n    }\r\n\r\n    // Function to register an asset\r\n    function registerAsset(string memory assetId, address owner, string memory assetType) public {\r\n        require(assets[assetId].owner == address(0), \"Asset already registered\");\r\n        assets[assetId] = Asset(assetId, owner, false, assetType);\r\n        emit AssetRegistered(assetId, owner);\r\n    }\r\n\r\n    // Function to tokenize an asset\r\n    function tokenizeAsset(string memory assetId) public {\r\n        require(assets[assetId].owner == msg.sender, \"Only the owner can tokenize the asset\");\r\n        require(!assets[assetId].isTokenized, \"Asset is already tokenized\");\r\n        assets[assetId].isTokenized = true;\r\n        //TODO: Add logic to tokenize the asset\r\n\r\n        emit AssetTokenized(assetId, msg.sender);\r\n    }\r\n\r\n    // Function to check if an asset is tokenized\r\n    function isAssetTokenized(string memory assetId) public view returns (bool) {\r\n        return assets[assetId].isTokenized;\r\n    }\r\n}\r\n",
  "sourcePath": "C:\\Users\\envy\\Desktop\\Getnet\\graduation-project\\Asset-Tokenization\\backend\\contracts\\AssetTokenization.sol",
  "compiler": {
    "name": "solc",
    "version": "0.8.21+commit.d9974bed.Emscripten.clang"
  },
  "schemaVersion": "3.4.16",
  "updatedAt": "2023-12-20T11:04:15.883Z",
  "devdoc": {
    "kind": "dev",
    "methods": {},
    "version": 1
  },
  "userdoc": {
    "kind": "user",
    "methods": {},
    "version": 1
  }
}