{
  "contractName": "AssetTokenization",
  "abi": [
    {
      "inputs": [],
      "stateMutability": "nonpayable",
      "type": "constructor"
    },
    {
      "anonymous": false,
      "inputs": [
        {
          "indexed": true,
          "internalType": "address",
          "name": "owner",
          "type": "address"
        },
        {
          "indexed": true,
          "internalType": "address",
          "name": "approved",
          "type": "address"
        },
        {
          "indexed": true,
          "internalType": "uint256",
          "name": "tokenId",
          "type": "uint256"
        }
      ],
      "name": "Approval",
      "type": "event"
    },
    {
      "anonymous": false,
      "inputs": [
        {
          "indexed": true,
          "internalType": "address",
          "name": "owner",
          "type": "address"
        },
        {
          "indexed": true,
          "internalType": "address",
          "name": "operator",
          "type": "address"
        },
        {
          "indexed": false,
          "internalType": "bool",
          "name": "approved",
          "type": "bool"
        }
      ],
      "name": "ApprovalForAll",
      "type": "event"
    },
    {
      "anonymous": false,
      "inputs": [
        {
          "indexed": false,
          "internalType": "string",
          "name": "assetId",
          "type": "string"
        },
        {
          "indexed": false,
          "internalType": "address",
          "name": "owner",
          "type": "address"
        }
      ],
      "name": "AssetRegistered",
      "type": "event"
    },
    {
      "anonymous": false,
      "inputs": [
        {
          "indexed": false,
          "internalType": "string",
          "name": "assetId",
          "type": "string"
        },
        {
          "indexed": false,
          "internalType": "address",
          "name": "owner",
          "type": "address"
        }
      ],
      "name": "AssetTokenized",
      "type": "event"
    },
    {
      "anonymous": false,
      "inputs": [
        {
          "indexed": true,
          "internalType": "address",
          "name": "from",
          "type": "address"
        },
        {
          "indexed": true,
          "internalType": "address",
          "name": "to",
          "type": "address"
        },
        {
          "indexed": true,
          "internalType": "uint256",
          "name": "tokenId",
          "type": "uint256"
        }
      ],
      "name": "Transfer",
      "type": "event"
    },
    {
      "inputs": [
        {
          "internalType": "address",
          "name": "to",
          "type": "address"
        },
        {
          "internalType": "uint256",
          "name": "tokenId",
          "type": "uint256"
        }
      ],
      "name": "approve",
      "outputs": [],
      "stateMutability": "nonpayable",
      "type": "function"
    },
    {
      "inputs": [
        {
          "internalType": "string",
          "name": "",
          "type": "string"
        }
      ],
      "name": "assets",
      "outputs": [
        {
          "internalType": "uint256",
          "name": "tokenId",
          "type": "uint256"
        },
        {
          "internalType": "string",
          "name": "assetId",
          "type": "string"
        },
        {
          "internalType": "bool",
          "name": "isTokenized",
          "type": "bool"
        },
        {
          "internalType": "string",
          "name": "assetType",
          "type": "string"
        },
        {
          "internalType": "address",
          "name": "owner",
          "type": "address"
        }
      ],
      "stateMutability": "view",
      "type": "function"
    },
    {
      "inputs": [
        {
          "internalType": "address",
          "name": "owner",
          "type": "address"
        }
      ],
      "name": "balanceOf",
      "outputs": [
        {
          "internalType": "uint256",
          "name": "",
          "type": "uint256"
        }
      ],
      "stateMutability": "view",
      "type": "function"
    },
    {
      "inputs": [
        {
          "internalType": "uint256",
          "name": "tokenId",
          "type": "uint256"
        }
      ],
      "name": "getApproved",
      "outputs": [
        {
          "internalType": "address",
          "name": "",
          "type": "address"
        }
      ],
      "stateMutability": "view",
      "type": "function"
    },
    {
      "inputs": [
        {
          "internalType": "address",
          "name": "owner",
          "type": "address"
        },
        {
          "internalType": "address",
          "name": "operator",
          "type": "address"
        }
      ],
      "name": "isApprovedForAll",
      "outputs": [
        {
          "internalType": "bool",
          "name": "",
          "type": "bool"
        }
      ],
      "stateMutability": "view",
      "type": "function"
    },
    {
      "inputs": [],
      "name": "name",
      "outputs": [
        {
          "internalType": "string",
          "name": "",
          "type": "string"
        }
      ],
      "stateMutability": "view",
      "type": "function"
    },
    {
      "inputs": [
        {
          "internalType": "uint256",
          "name": "tokenId",
          "type": "uint256"
        }
      ],
      "name": "ownerOf",
      "outputs": [
        {
          "internalType": "address",
          "name": "",
          "type": "address"
        }
      ],
      "stateMutability": "view",
      "type": "function"
    },
    {
      "inputs": [
        {
          "internalType": "address",
          "name": "from",
          "type": "address"
        },
        {
          "internalType": "address",
          "name": "to",
          "type": "address"
        },
        {
          "internalType": "uint256",
          "name": "tokenId",
          "type": "uint256"
        }
      ],
      "name": "safeTransferFrom",
      "outputs": [],
      "stateMutability": "nonpayable",
      "type": "function"
    },
    {
      "inputs": [
        {
          "internalType": "address",
          "name": "from",
          "type": "address"
        },
        {
          "internalType": "address",
          "name": "to",
          "type": "address"
        },
        {
          "internalType": "uint256",
          "name": "tokenId",
          "type": "uint256"
        },
        {
          "internalType": "bytes",
          "name": "data",
          "type": "bytes"
        }
      ],
      "name": "safeTransferFrom",
      "outputs": [],
      "stateMutability": "nonpayable",
      "type": "function"
    },
    {
      "inputs": [
        {
          "internalType": "address",
          "name": "operator",
          "type": "address"
        },
        {
          "internalType": "bool",
          "name": "approved",
          "type": "bool"
        }
      ],
      "name": "setApprovalForAll",
      "outputs": [],
      "stateMutability": "nonpayable",
      "type": "function"
    },
    {
      "inputs": [
        {
          "internalType": "bytes4",
          "name": "interfaceId",
          "type": "bytes4"
        }
      ],
      "name": "supportsInterface",
      "outputs": [
        {
          "internalType": "bool",
          "name": "",
          "type": "bool"
        }
      ],
      "stateMutability": "view",
      "type": "function"
    },
    {
      "inputs": [],
      "name": "symbol",
      "outputs": [
        {
          "internalType": "string",
          "name": "",
          "type": "string"
        }
      ],
      "stateMutability": "view",
      "type": "function"
    },
    {
      "inputs": [
        {
          "internalType": "uint256",
          "name": "tokenId",
          "type": "uint256"
        }
      ],
      "name": "tokenURI",
      "outputs": [
        {
          "internalType": "string",
          "name": "",
          "type": "string"
        }
      ],
      "stateMutability": "view",
      "type": "function"
    },
    {
      "inputs": [
        {
          "internalType": "address",
          "name": "from",
          "type": "address"
        },
        {
          "internalType": "address",
          "name": "to",
          "type": "address"
        },
        {
          "internalType": "uint256",
          "name": "tokenId",
          "type": "uint256"
        }
      ],
      "name": "transferFrom",
      "outputs": [],
      "stateMutability": "nonpayable",
      "type": "function"
    },
    {
      "inputs": [
        {
          "internalType": "string",
          "name": "assetId",
          "type": "string"
        },
        {
          "internalType": "string",
          "name": "assetType",
          "type": "string"
        },
        {
          "internalType": "address",
          "name": "assetOwner",
          "type": "address"
        }
      ],
      "name": "registerAsset",
      "outputs": [],
      "stateMutability": "nonpayable",
      "type": "function"
    },
    {
      "inputs": [
        {
          "internalType": "string",
          "name": "assetId",
          "type": "string"
        },
        {
          "internalType": "address",
          "name": "assetOwner",
          "type": "address"
        }
      ],
      "name": "tokenizeAsset",
      "outputs": [],
      "stateMutability": "nonpayable",
      "type": "function"
    },
    {
      "inputs": [
        {
          "internalType": "string",
          "name": "assetId",
          "type": "string"
        },
        {
          "internalType": "address",
          "name": "from",
          "type": "address"
        },
        {
          "internalType": "address",
          "name": "to",
          "type": "address"
        }
      ],
      "name": "transferAsset",
      "outputs": [],
      "stateMutability": "nonpayable",
      "type": "function"
    },
    {
      "inputs": [
        {
          "internalType": "string",
          "name": "assetId",
          "type": "string"
        }
      ],
      "name": "getAssetOwner",
      "outputs": [
        {
          "internalType": "address",
          "name": "",
          "type": "address"
        }
      ],
      "stateMutability": "view",
      "type": "function"
    },
    {
      "inputs": [
        {
          "internalType": "string",
          "name": "assetId",
          "type": "string"
        }
      ],
      "name": "isAssetTokenized",
      "outputs": [
        {
          "internalType": "bool",
          "name": "",
          "type": "bool"
        }
      ],
      "stateMutability": "view",
      "type": "function"
    }
  ],
  "bytecode": "0x608060405234801562000010575f80fd5b506040518060400160405280600a81526020017f4173736574546f6b656e000000000000000000000000000000000000000000008152506040518060400160405280600381526020017f4153540000000000000000000000000000000000000000000000000000000000815250815f90816200008d919062000314565b5080600190816200009f919062000314565b5050506001600881905550620003f8565b5f81519050919050565b7f4e487b71000000000000000000000000000000000000000000000000000000005f52604160045260245ffd5b7f4e487b71000000000000000000000000000000000000000000000000000000005f52602260045260245ffd5b5f60028204905060018216806200012c57607f821691505b602082108103620001425762000141620000e7565b5b50919050565b5f819050815f5260205f209050919050565b5f6020601f8301049050919050565b5f82821b905092915050565b5f60088302620001a67fffffffffffffffffffffffffffffffffffffffffffffffffffffffffffffffff8262000169565b620001b2868362000169565b95508019841693508086168417925050509392505050565b5f819050919050565b5f819050919050565b5f620001fc620001f6620001f084620001ca565b620001d3565b620001ca565b9050919050565b5f819050919050565b6200021783620001dc565b6200022f620002268262000203565b84845462000175565b825550505050565b5f90565b6200024562000237565b620002528184846200020c565b505050565b5b8181101562000279576200026d5f826200023b565b60018101905062000258565b5050565b601f821115620002c857620002928162000148565b6200029d846200015a565b81016020851015620002ad578190505b620002c5620002bc856200015a565b83018262000257565b50505b505050565b5f82821c905092915050565b5f620002ea5f1984600802620002cd565b1980831691505092915050565b5f620003048383620002d9565b9150826002028217905092915050565b6200031f82620000b0565b67ffffffffffffffff8111156200033b576200033a620000ba565b5b62000347825462000114565b620003548282856200027d565b5f60209050601f8311600181146200038a575f841562000375578287015190505b620003818582620002f7565b865550620003f0565b601f1984166200039a8662000148565b5f5b82811015620003c3578489015182556001820191506020850194506020810190506200039c565b86831015620003e35784890151620003df601f891682620002d9565b8355505b6001600288020188555050505b505050505050565b61341280620004065f395ff3fe608060405234801561000f575f80fd5b506004361061011f575f3560e01c806371982e7e116100ab578063a22cb4651161006f578063a22cb4651461032b578063b88d4fde14610347578063c87b56dd14610363578063e44bce4014610393578063e985e9c5146103c35761011f565b806371982e7e1461027157806385936228146102a157806387a854a0146102d55780638aa1d299146102f157806395d89b411461030d5761011f565b80631d8c1d2a116100f25780631d8c1d2a146101bd57806323b872dd146101d957806342842e0e146101f55780636352211e1461021157806370a08231146102415761011f565b806301ffc9a71461012357806306fdde0314610153578063081812fc14610171578063095ea7b3146101a1575b5f80fd5b61013d60048036038101906101389190611f73565b6103f3565b60405161014a9190611fb8565b60405180910390f35b61015b6104d4565b604051610168919061205b565b60405180910390f35b61018b600480360381019061018691906120ae565b610563565b6040516101989190612118565b60405180910390f35b6101bb60048036038101906101b6919061215b565b6105a5565b005b6101d760048036038101906101d291906122c5565b6106bb565b005b6101f360048036038101906101ee919061231f565b610877565b005b61020f600480360381019061020a919061231f565b6108d7565b005b61022b600480360381019061022691906120ae565b6108f6565b6040516102389190612118565b60405180910390f35b61025b6004803603810190610256919061236f565b61097a565b60405161026891906123a9565b60405180910390f35b61028b600480360381019061028691906123c2565b610a2e565b6040516102989190611fb8565b60405180910390f35b6102bb60048036038101906102b691906123c2565b610a64565b6040516102cc959493929190612409565b60405180910390f35b6102ef60048036038101906102ea9190612468565b610be5565b005b61030b600480360381019061030691906124d4565b610d30565b005b610315610f53565b604051610322919061205b565b60405180910390f35b61034560048036038101906103409190612586565b610fe3565b005b610361600480360381019061035c9190612662565b610ff9565b005b61037d600480360381019061037891906120ae565b61105b565b60405161038a919061205b565b60405180910390f35b6103ad60048036038101906103a891906123c2565b6110c0565b6040516103ba9190612118565b60405180910390f35b6103dd60048036038101906103d891906126e2565b61115e565b6040516103ea9190611fb8565b60405180910390f35b5f7f80ac58cd000000000000000000000000000000000000000000000000000000007bffffffffffffffffffffffffffffffffffffffffffffffffffffffff1916827bffffffffffffffffffffffffffffffffffffffffffffffffffffffff191614806104bd57507f5b5e139f000000000000000000000000000000000000000000000000000000007bffffffffffffffffffffffffffffffffffffffffffffffffffffffff1916827bffffffffffffffffffffffffffffffffffffffffffffffffffffffff1916145b806104cd57506104cc826111ec565b5b9050919050565b60605f80546104e29061274d565b80601f016020809104026020016040519081016040528092919081815260200182805461050e9061274d565b80156105595780601f1061053057610100808354040283529160200191610559565b820191905f5260205f20905b81548152906001019060200180831161053c57829003601f168201915b5050505050905090565b5f61056d82611255565b60045f8381526020019081526020015f205f9054906101000a900473ffffffffffffffffffffffffffffffffffffffff169050919050565b5f6105af826108f6565b90508073ffffffffffffffffffffffffffffffffffffffff168373ffffffffffffffffffffffffffffffffffffffff160361061f576040517f08c379a0000000000000000000000000000000000000000000000000000000008152600401610616906127ed565b60405180910390fd5b8073ffffffffffffffffffffffffffffffffffffffff1661063e6112a0565b73ffffffffffffffffffffffffffffffffffffffff16148061066d575061066c816106676112a0565b61115e565b5b6106ac576040517f08c379a00000000000000000000000000000000000000000000000000000000081526004016106a39061287b565b60405180910390fd5b6106b683836112a7565b505050565b8073ffffffffffffffffffffffffffffffffffffffff166006836040516106e291906128d3565b90815260200160405180910390206004015f9054906101000a900473ffffffffffffffffffffffffffffffffffffffff1673ffffffffffffffffffffffffffffffffffffffff1614610769576040517f08c379a000000000000000000000000000000000000000000000000000000000815260040161076090612959565b60405180910390fd5b60068260405161077991906128d3565b90815260200160405180910390206002015f9054906101000a900460ff16156107d7576040517f08c379a00000000000000000000000000000000000000000000000000000000081526004016107ce906129c1565b60405180910390fd5b60016006836040516107e991906128d3565b90815260200160405180910390206002015f6101000a81548160ff02191690831515021790555061083a8160068460405161082491906128d3565b90815260200160405180910390205f015461135d565b7f70e24291736a2efe82a5cabb5cb66babcc38d917e0de07a29f6766fc12f59864828260405161086b9291906129df565b60405180910390a15050565b6108886108826112a0565b82611570565b6108c7576040517f08c379a00000000000000000000000000000000000000000000000000000000081526004016108be90612a7d565b60405180910390fd5b6108d2838383611604565b505050565b6108f183838360405180602001604052805f815250610ff9565b505050565b5f80610901836118f0565b90505f73ffffffffffffffffffffffffffffffffffffffff168173ffffffffffffffffffffffffffffffffffffffff1603610971576040517f08c379a000000000000000000000000000000000000000000000000000000000815260040161096890612ae5565b60405180910390fd5b80915050919050565b5f8073ffffffffffffffffffffffffffffffffffffffff168273ffffffffffffffffffffffffffffffffffffffff16036109e9576040517f08c379a00000000000000000000000000000000000000000000000000000000081526004016109e090612b73565b60405180910390fd5b60035f8373ffffffffffffffffffffffffffffffffffffffff1673ffffffffffffffffffffffffffffffffffffffff1681526020019081526020015f20549050919050565b5f600682604051610a3f91906128d3565b90815260200160405180910390206002015f9054906101000a900460ff169050919050565b6006818051602081018201805184825260208301602085012081835280955050505050505f91509050805f015490806001018054610aa19061274d565b80601f0160208091040260200160405190810160405280929190818152602001828054610acd9061274d565b8015610b185780601f10610aef57610100808354040283529160200191610b18565b820191905f5260205f20905b815481529060010190602001808311610afb57829003601f168201915b505050505090806002015f9054906101000a900460ff1690806003018054610b3f9061274d565b80601f0160208091040260200160405190810160405280929190818152602001828054610b6b9061274d565b8015610bb65780601f10610b8d57610100808354040283529160200191610bb6565b820191905f5260205f20905b815481529060010190602001808311610b9957829003601f168201915b505050505090806004015f9054906101000a900473ffffffffffffffffffffffffffffffffffffffff16905085565b600683604051610bf591906128d3565b90815260200160405180910390206002015f9054906101000a900460ff16610c52576040517f08c379a0000000000000000000000000000000000000000000000000000000008152600401610c4990612bdb565b60405180910390fd5b8173ffffffffffffffffffffffffffffffffffffffff16600684604051610c7991906128d3565b90815260200160405180910390206004015f9054906101000a900473ffffffffffffffffffffffffffffffffffffffff1673ffffffffffffffffffffffffffffffffffffffff1614610d00576040517f08c379a0000000000000000000000000000000000000000000000000000000008152600401610cf790612c69565b60405180910390fd5b610d2b8282600686604051610d1591906128d3565b90815260200160405180910390205f0154611604565b505050565b5f73ffffffffffffffffffffffffffffffffffffffff16600684604051610d5791906128d3565b90815260200160405180910390206004015f9054906101000a900473ffffffffffffffffffffffffffffffffffffffff1673ffffffffffffffffffffffffffffffffffffffff1614610dde576040517f08c379a0000000000000000000000000000000000000000000000000000000008152600401610dd590612cd1565b60405180910390fd5b5f60085f815480929190610df190612d1c565b9190505590505f6040518060a001604052808381526020018681526020015f151581526020018581526020018473ffffffffffffffffffffffffffffffffffffffff16815250905080600686604051610e4a91906128d3565b90815260200160405180910390205f820151815f01556020820151816001019081610e759190612f00565b506040820151816002015f6101000a81548160ff0219169083151502179055506060820151816003019081610eaa9190612f00565b506080820151816004015f6101000a81548173ffffffffffffffffffffffffffffffffffffffff021916908373ffffffffffffffffffffffffffffffffffffffff1602179055509050508460075f8481526020019081526020015f209081610f129190612f00565b507f3660b9d6c78cc82ab7177ce73afc0d18a4445a81493b7f4457bf837ccf6ede8e8584604051610f449291906129df565b60405180910390a15050505050565b606060018054610f629061274d565b80601f0160208091040260200160405190810160405280929190818152602001828054610f8e9061274d565b8015610fd95780601f10610fb057610100808354040283529160200191610fd9565b820191905f5260205f20905b815481529060010190602001808311610fbc57829003601f168201915b5050505050905090565b610ff5610fee6112a0565b8383611929565b5050565b61100a6110046112a0565b83611570565b611049576040517f08c379a000000000000000000000000000000000000000000000000000000000815260040161104090612a7d565b60405180910390fd5b61105584848484611a90565b50505050565b606061106682611255565b5f61106f611aec565b90505f81511161108d5760405180602001604052805f8152506110b8565b8061109784611b02565b6040516020016110a8929190612fcf565b6040516020818303038152906040525b915050919050565b5f6006826040516110d191906128d3565b90815260200160405180910390206002015f9054906101000a900460ff1661112e576040517f08c379a000000000000000000000000000000000000000000000000000000000815260040161112590612bdb565b60405180910390fd5b61115760068360405161114191906128d3565b90815260200160405180910390205f01546108f6565b9050919050565b5f60055f8473ffffffffffffffffffffffffffffffffffffffff1673ffffffffffffffffffffffffffffffffffffffff1681526020019081526020015f205f8373ffffffffffffffffffffffffffffffffffffffff1673ffffffffffffffffffffffffffffffffffffffff1681526020019081526020015f205f9054906101000a900460ff16905092915050565b5f7f01ffc9a7000000000000000000000000000000000000000000000000000000007bffffffffffffffffffffffffffffffffffffffffffffffffffffffff1916827bffffffffffffffffffffffffffffffffffffffffffffffffffffffff1916149050919050565b61125e81611bcc565b61129d576040517f08c379a000000000000000000000000000000000000000000000000000000000815260040161129490612ae5565b60405180910390fd5b50565b5f33905090565b8160045f8381526020019081526020015f205f6101000a81548173ffffffffffffffffffffffffffffffffffffffff021916908373ffffffffffffffffffffffffffffffffffffffff160217905550808273ffffffffffffffffffffffffffffffffffffffff16611317836108f6565b73ffffffffffffffffffffffffffffffffffffffff167f8c5be1e5ebec7d5bd14f71427d1e84f3dd0314c0f7b2291e5b200ac8c7c3b92560405160405180910390a45050565b5f73ffffffffffffffffffffffffffffffffffffffff168273ffffffffffffffffffffffffffffffffffffffff16036113cb576040517f08c379a00000000000000000000000000000000000000000000000000000000081526004016113c29061303c565b60405180910390fd5b6113d481611bcc565b15611414576040517f08c379a000000000000000000000000000000000000000000000000000000000815260040161140b906130a4565b60405180910390fd5b6114215f83836001611c0c565b61142a81611bcc565b1561146a576040517f08c379a0000000000000000000000000000000000000000000000000000000008152600401611461906130a4565b60405180910390fd5b600160035f8473ffffffffffffffffffffffffffffffffffffffff1673ffffffffffffffffffffffffffffffffffffffff1681526020019081526020015f205f82825401925050819055508160025f8381526020019081526020015f205f6101000a81548173ffffffffffffffffffffffffffffffffffffffff021916908373ffffffffffffffffffffffffffffffffffffffff160217905550808273ffffffffffffffffffffffffffffffffffffffff165f73ffffffffffffffffffffffffffffffffffffffff167fddf252ad1be2c89b69c2b068fc378daa952ba7f163c4a11628f55a4df523b3ef60405160405180910390a461156c5f83836001611c12565b5050565b5f8061157b836108f6565b90508073ffffffffffffffffffffffffffffffffffffffff168473ffffffffffffffffffffffffffffffffffffffff1614806115bd57506115bc818561115e565b5b806115fb57508373ffffffffffffffffffffffffffffffffffffffff166115e384610563565b73ffffffffffffffffffffffffffffffffffffffff16145b91505092915050565b8273ffffffffffffffffffffffffffffffffffffffff16611624826108f6565b73ffffffffffffffffffffffffffffffffffffffff161461167a576040517f08c379a000000000000000000000000000000000000000000000000000000000815260040161167190613132565b60405180910390fd5b5f73ffffffffffffffffffffffffffffffffffffffff168273ffffffffffffffffffffffffffffffffffffffff16036116e8576040517f08c379a00000000000000000000000000000000000000000000000000000000081526004016116df906131c0565b60405180910390fd5b6116f58383836001611c0c565b8273ffffffffffffffffffffffffffffffffffffffff16611715826108f6565b73ffffffffffffffffffffffffffffffffffffffff161461176b576040517f08c379a000000000000000000000000000000000000000000000000000000000815260040161176290613132565b60405180910390fd5b60045f8281526020019081526020015f205f6101000a81549073ffffffffffffffffffffffffffffffffffffffff0219169055600160035f8573ffffffffffffffffffffffffffffffffffffffff1673ffffffffffffffffffffffffffffffffffffffff1681526020019081526020015f205f8282540392505081905550600160035f8473ffffffffffffffffffffffffffffffffffffffff1673ffffffffffffffffffffffffffffffffffffffff1681526020019081526020015f205f82825401925050819055508160025f8381526020019081526020015f205f6101000a81548173ffffffffffffffffffffffffffffffffffffffff021916908373ffffffffffffffffffffffffffffffffffffffff160217905550808273ffffffffffffffffffffffffffffffffffffffff168473ffffffffffffffffffffffffffffffffffffffff167fddf252ad1be2c89b69c2b068fc378daa952ba7f163c4a11628f55a4df523b3ef60405160405180910390a46118eb8383836001611c12565b505050565b5f60025f8381526020019081526020015f205f9054906101000a900473ffffffffffffffffffffffffffffffffffffffff169050919050565b8173ffffffffffffffffffffffffffffffffffffffff168373ffffffffffffffffffffffffffffffffffffffff1603611997576040517f08c379a000000000000000000000000000000000000000000000000000000000815260040161198e90613228565b60405180910390fd5b8060055f8573ffffffffffffffffffffffffffffffffffffffff1673ffffffffffffffffffffffffffffffffffffffff1681526020019081526020015f205f8473ffffffffffffffffffffffffffffffffffffffff1673ffffffffffffffffffffffffffffffffffffffff1681526020019081526020015f205f6101000a81548160ff0219169083151502179055508173ffffffffffffffffffffffffffffffffffffffff168373ffffffffffffffffffffffffffffffffffffffff167f17307eab39ab6107e8899845ad3d59bd9653f200f220920489ca2b5937696c3183604051611a839190611fb8565b60405180910390a3505050565b611a9b848484611604565b611aa784848484611c18565b611ae6576040517f08c379a0000000000000000000000000000000000000000000000000000000008152600401611add906132b6565b60405180910390fd5b50505050565b606060405180602001604052805f815250905090565b60605f6001611b1084611d9a565b0190505f8167ffffffffffffffff811115611b2e57611b2d6121a1565b5b6040519080825280601f01601f191660200182016040528015611b605781602001600182028036833780820191505090505b5090505f82602001820190505b600115611bc1578080600190039150507f3031323334353637383961626364656600000000000000000000000000000000600a86061a8153600a8581611bb657611bb56132d4565b5b0494505f8503611b6d575b819350505050919050565b5f8073ffffffffffffffffffffffffffffffffffffffff16611bed836118f0565b73ffffffffffffffffffffffffffffffffffffffff1614159050919050565b50505050565b50505050565b5f611c388473ffffffffffffffffffffffffffffffffffffffff16611eeb565b15611d8d578373ffffffffffffffffffffffffffffffffffffffff1663150b7a02611c616112a0565b8786866040518563ffffffff1660e01b8152600401611c839493929190613353565b6020604051808303815f875af1925050508015611cbe57506040513d601f19601f82011682018060405250810190611cbb91906133b1565b60015b611d3d573d805f8114611cec576040519150601f19603f3d011682016040523d82523d5f602084013e611cf1565b606091505b505f815103611d35576040517f08c379a0000000000000000000000000000000000000000000000000000000008152600401611d2c906132b6565b60405180910390fd5b805181602001fd5b63150b7a0260e01b7bffffffffffffffffffffffffffffffffffffffffffffffffffffffff1916817bffffffffffffffffffffffffffffffffffffffffffffffffffffffff191614915050611d92565b600190505b949350505050565b5f805f90507a184f03e93ff9f4daa797ed6e38ed64bf6a1f0100000000000000008310611df6577a184f03e93ff9f4daa797ed6e38ed64bf6a1f0100000000000000008381611dec57611deb6132d4565b5b0492506040810190505b6d04ee2d6d415b85acef81000000008310611e33576d04ee2d6d415b85acef81000000008381611e2957611e286132d4565b5b0492506020810190505b662386f26fc100008310611e6257662386f26fc100008381611e5857611e576132d4565b5b0492506010810190505b6305f5e1008310611e8b576305f5e1008381611e8157611e806132d4565b5b0492506008810190505b6127108310611eb0576127108381611ea657611ea56132d4565b5b0492506004810190505b60648310611ed35760648381611ec957611ec86132d4565b5b0492506002810190505b600a8310611ee2576001810190505b80915050919050565b5f808273ffffffffffffffffffffffffffffffffffffffff163b119050919050565b5f604051905090565b5f80fd5b5f80fd5b5f7fffffffff0000000000000000000000000000000000000000000000000000000082169050919050565b611f5281611f1e565b8114611f5c575f80fd5b50565b5f81359050611f6d81611f49565b92915050565b5f60208284031215611f8857611f87611f16565b5b5f611f9584828501611f5f565b91505092915050565b5f8115159050919050565b611fb281611f9e565b82525050565b5f602082019050611fcb5f830184611fa9565b92915050565b5f81519050919050565b5f82825260208201905092915050565b5f5b83811015612008578082015181840152602081019050611fed565b5f8484015250505050565b5f601f19601f8301169050919050565b5f61202d82611fd1565b6120378185611fdb565b9350612047818560208601611feb565b61205081612013565b840191505092915050565b5f6020820190508181035f8301526120738184612023565b905092915050565b5f819050919050565b61208d8161207b565b8114612097575f80fd5b50565b5f813590506120a881612084565b92915050565b5f602082840312156120c3576120c2611f16565b5b5f6120d08482850161209a565b91505092915050565b5f73ffffffffffffffffffffffffffffffffffffffff82169050919050565b5f612102826120d9565b9050919050565b612112816120f8565b82525050565b5f60208201905061212b5f830184612109565b92915050565b61213a816120f8565b8114612144575f80fd5b50565b5f8135905061215581612131565b92915050565b5f806040838503121561217157612170611f16565b5b5f61217e85828601612147565b925050602061218f8582860161209a565b9150509250929050565b5f80fd5b5f80fd5b7f4e487b71000000000000000000000000000000000000000000000000000000005f52604160045260245ffd5b6121d782612013565b810181811067ffffffffffffffff821117156121f6576121f56121a1565b5b80604052505050565b5f612208611f0d565b905061221482826121ce565b919050565b5f67ffffffffffffffff821115612233576122326121a1565b5b61223c82612013565b9050602081019050919050565b828183375f83830152505050565b5f61226961226484612219565b6121ff565b9050828152602081018484840111156122855761228461219d565b5b612290848285612249565b509392505050565b5f82601f8301126122ac576122ab612199565b5b81356122bc848260208601612257565b91505092915050565b5f80604083850312156122db576122da611f16565b5b5f83013567ffffffffffffffff8111156122f8576122f7611f1a565b5b61230485828601612298565b925050602061231585828601612147565b9150509250929050565b5f805f6060848603121561233657612335611f16565b5b5f61234386828701612147565b935050602061235486828701612147565b92505060406123658682870161209a565b9150509250925092565b5f6020828403121561238457612383611f16565b5b5f61239184828501612147565b91505092915050565b6123a38161207b565b82525050565b5f6020820190506123bc5f83018461239a565b92915050565b5f602082840312156123d7576123d6611f16565b5b5f82013567ffffffffffffffff8111156123f4576123f3611f1a565b5b61240084828501612298565b91505092915050565b5f60a08201905061241c5f83018861239a565b818103602083015261242e8187612023565b905061243d6040830186611fa9565b818103606083015261244f8185612023565b905061245e6080830184612109565b9695505050505050565b5f805f6060848603121561247f5761247e611f16565b5b5f84013567ffffffffffffffff81111561249c5761249b611f1a565b5b6124a886828701612298565b93505060206124b986828701612147565b92505060406124ca86828701612147565b9150509250925092565b5f805f606084860312156124eb576124ea611f16565b5b5f84013567ffffffffffffffff81111561250857612507611f1a565b5b61251486828701612298565b935050602084013567ffffffffffffffff81111561253557612534611f1a565b5b61254186828701612298565b925050604061255286828701612147565b9150509250925092565b61256581611f9e565b811461256f575f80fd5b50565b5f813590506125808161255c565b92915050565b5f806040838503121561259c5761259b611f16565b5b5f6125a985828601612147565b92505060206125ba85828601612572565b9150509250929050565b5f67ffffffffffffffff8211156125de576125dd6121a1565b5b6125e782612013565b9050602081019050919050565b5f612606612601846125c4565b6121ff565b9050828152602081018484840111156126225761262161219d565b5b61262d848285612249565b509392505050565b5f82601f83011261264957612648612199565b5b81356126598482602086016125f4565b91505092915050565b5f805f806080858703121561267a57612679611f16565b5b5f61268787828801612147565b945050602061269887828801612147565b93505060406126a98782880161209a565b925050606085013567ffffffffffffffff8111156126ca576126c9611f1a565b5b6126d687828801612635565b91505092959194509250565b5f80604083850312156126f8576126f7611f16565b5b5f61270585828601612147565b925050602061271685828601612147565b9150509250929050565b7f4e487b71000000000000000000000000000000000000000000000000000000005f52602260045260245ffd5b5f600282049050600182168061276457607f821691505b60208210810361277757612776612720565b5b50919050565b7f4552433732313a20617070726f76616c20746f2063757272656e74206f776e655f8201527f7200000000000000000000000000000000000000000000000000000000000000602082015250565b5f6127d7602183611fdb565b91506127e28261277d565b604082019050919050565b5f6020820190508181035f830152612804816127cb565b9050919050565b7f4552433732313a20617070726f76652063616c6c6572206973206e6f7420746f5f8201527f6b656e206f776e6572206f7220617070726f76656420666f7220616c6c000000602082015250565b5f612865603d83611fdb565b91506128708261280b565b604082019050919050565b5f6020820190508181035f83015261289281612859565b9050919050565b5f81905092915050565b5f6128ad82611fd1565b6128b78185612899565b93506128c7818560208601611feb565b80840191505092915050565b5f6128de82846128a3565b915081905092915050565b7f4f6e6c7920746865206f776e65722063616e20746f6b656e697a6520746865205f8201527f6173736574000000000000000000000000000000000000000000000000000000602082015250565b5f612943602583611fdb565b915061294e826128e9565b604082019050919050565b5f6020820190508181035f83015261297081612937565b9050919050565b7f417373657420697320616c726561647920746f6b656e697a65640000000000005f82015250565b5f6129ab601a83611fdb565b91506129b682612977565b602082019050919050565b5f6020820190508181035f8301526129d88161299f565b9050919050565b5f6040820190508181035f8301526129f78185612023565b9050612a066020830184612109565b9392505050565b7f4552433732313a2063616c6c6572206973206e6f7420746f6b656e206f776e655f8201527f72206f7220617070726f76656400000000000000000000000000000000000000602082015250565b5f612a67602d83611fdb565b9150612a7282612a0d565b604082019050919050565b5f6020820190508181035f830152612a9481612a5b565b9050919050565b7f4552433732313a20696e76616c696420746f6b656e20494400000000000000005f82015250565b5f612acf601883611fdb565b9150612ada82612a9b565b602082019050919050565b5f6020820190508181035f830152612afc81612ac3565b9050919050565b7f4552433732313a2061646472657373207a65726f206973206e6f7420612076615f8201527f6c6964206f776e65720000000000000000000000000000000000000000000000602082015250565b5f612b5d602983611fdb565b9150612b6882612b03565b604082019050919050565b5f6020820190508181035f830152612b8a81612b51565b9050919050565b7f4173736574206973206e6f7420746f6b656e697a6564000000000000000000005f82015250565b5f612bc5601683611fdb565b9150612bd082612b91565b602082019050919050565b5f6020820190508181035f830152612bf281612bb9565b9050919050565b7f4f6e6c7920746865206f776e65722063616e207472616e7366657220746865205f8201527f6173736574000000000000000000000000000000000000000000000000000000602082015250565b5f612c53602583611fdb565b9150612c5e82612bf9565b604082019050919050565b5f6020820190508181035f830152612c8081612c47565b9050919050565b7f417373657420616c7265616479207265676973746572656400000000000000005f82015250565b5f612cbb601883611fdb565b9150612cc682612c87565b602082019050919050565b5f6020820190508181035f830152612ce881612caf565b9050919050565b7f4e487b71000000000000000000000000000000000000000000000000000000005f52601160045260245ffd5b5f612d268261207b565b91507fffffffffffffffffffffffffffffffffffffffffffffffffffffffffffffffff8203612d5857612d57612cef565b5b600182019050919050565b5f819050815f5260205f209050919050565b5f6020601f8301049050919050565b5f82821b905092915050565b5f60088302612dbf7fffffffffffffffffffffffffffffffffffffffffffffffffffffffffffffffff82612d84565b612dc98683612d84565b95508019841693508086168417925050509392505050565b5f819050919050565b5f612e04612dff612dfa8461207b565b612de1565b61207b565b9050919050565b5f819050919050565b612e1d83612dea565b612e31612e2982612e0b565b848454612d90565b825550505050565b5f90565b612e45612e39565b612e50818484612e14565b505050565b5b81811015612e7357612e685f82612e3d565b600181019050612e56565b5050565b601f821115612eb857612e8981612d63565b612e9284612d75565b81016020851015612ea1578190505b612eb5612ead85612d75565b830182612e55565b50505b505050565b5f82821c905092915050565b5f612ed85f1984600802612ebd565b1980831691505092915050565b5f612ef08383612ec9565b9150826002028217905092915050565b612f0982611fd1565b67ffffffffffffffff811115612f2257612f216121a1565b5b612f2c825461274d565b612f37828285612e77565b5f60209050601f831160018114612f68575f8415612f56578287015190505b612f608582612ee5565b865550612fc7565b601f198416612f7686612d63565b5f5b82811015612f9d57848901518255600182019150602085019450602081019050612f78565b86831015612fba5784890151612fb6601f891682612ec9565b8355505b6001600288020188555050505b505050505050565b5f612fda82856128a3565b9150612fe682846128a3565b91508190509392505050565b7f4552433732313a206d696e7420746f20746865207a65726f20616464726573735f82015250565b5f613026602083611fdb565b915061303182612ff2565b602082019050919050565b5f6020820190508181035f8301526130538161301a565b9050919050565b7f4552433732313a20746f6b656e20616c7265616479206d696e746564000000005f82015250565b5f61308e601c83611fdb565b91506130998261305a565b602082019050919050565b5f6020820190508181035f8301526130bb81613082565b9050919050565b7f4552433732313a207472616e736665722066726f6d20696e636f7272656374205f8201527f6f776e6572000000000000000000000000000000000000000000000000000000602082015250565b5f61311c602583611fdb565b9150613127826130c2565b604082019050919050565b5f6020820190508181035f83015261314981613110565b9050919050565b7f4552433732313a207472616e7366657220746f20746865207a65726f206164645f8201527f7265737300000000000000000000000000000000000000000000000000000000602082015250565b5f6131aa602483611fdb565b91506131b582613150565b604082019050919050565b5f6020820190508181035f8301526131d78161319e565b9050919050565b7f4552433732313a20617070726f766520746f2063616c6c6572000000000000005f82015250565b5f613212601983611fdb565b915061321d826131de565b602082019050919050565b5f6020820190508181035f83015261323f81613206565b9050919050565b7f4552433732313a207472616e7366657220746f206e6f6e2045524337323152655f8201527f63656976657220696d706c656d656e7465720000000000000000000000000000602082015250565b5f6132a0603283611fdb565b91506132ab82613246565b604082019050919050565b5f6020820190508181035f8301526132cd81613294565b9050919050565b7f4e487b71000000000000000000000000000000000000000000000000000000005f52601260045260245ffd5b5f81519050919050565b5f82825260208201905092915050565b5f61332582613301565b61332f818561330b565b935061333f818560208601611feb565b61334881612013565b840191505092915050565b5f6080820190506133665f830187612109565b6133736020830186612109565b613380604083018561239a565b8181036060830152613392818461331b565b905095945050505050565b5f815190506133ab81611f49565b92915050565b5f602082840312156133c6576133c5611f16565b5b5f6133d38482850161339d565b9150509291505056fea2646970667358221220809cbe27b06f11688b26264b503d86972392ddce2a9293a33a18030f91ec3d2764736f6c63430008150033",
  "immutableReferences": {},
  "source": "// SPDX-License-Identifier: MIT\npragma solidity >=0.7.0 <0.9.0;\nimport \"@openzeppelin/contracts/token/ERC721/ERC721.sol\";\n\ncontract AssetTokenization is ERC721 {\n    struct Asset {\n        uint256 tokenId; // Unique token identifier\n        string assetId; // Unique identifier for the asset\n        bool isTokenized; // Indicates if the asset is tokenized\n        string assetType; // Type of the asset\n        address owner; // Owner of the asset\n        // TODO: Add more fields\n    }\n\n    mapping(string => Asset) public assets;\n    mapping(uint256 => string) private tokenToAssetId;\n    uint256 private nextTokenId;\n\n    event AssetRegistered(string assetId, address owner);\n    event AssetTokenized(string assetId, address owner);\n\n    constructor() ERC721(\"AssetToken\", \"AST\") {\n        nextTokenId = 1;\n    }\n\n    function registerAsset(string memory assetId, string memory assetType, address assetOwner) public {\n        require(assets[assetId].owner == address(0), \"Asset already registered\");\n        \n        uint256 currentTokenId = nextTokenId++; // Assign and then increment tokenId\n        Asset memory newAsset = Asset(currentTokenId, assetId, false, assetType, assetOwner);\n        \n        assets[assetId] = newAsset;\n        tokenToAssetId[currentTokenId] = assetId;\n\n        emit AssetRegistered(assetId, assetOwner);\n    }\n \n\n\n    function tokenizeAsset(string memory assetId, address assetOwner) public {\n        require(assets[assetId].owner == assetOwner, \"Only the owner can tokenize the asset\");\n        require(!assets[assetId].isTokenized, \"Asset is already tokenized\");\n        assets[assetId].isTokenized = true;\n        _mint(assetOwner, assets[assetId].tokenId);\n        emit AssetTokenized(assetId, assetOwner);\n    }\n\n    function transferAsset(string memory assetId, address from, address to) public {\n        require(assets[assetId].isTokenized, \"Asset is not tokenized\");\n        require(assets[assetId].owner == from, \"Only the owner can transfer the asset\");\n        _transfer(from, to, assets[assetId].tokenId);\n    }\n\n    function getAssetOwner(string memory assetId) public view returns (address) {\n        require(assets[assetId].isTokenized, \"Asset is not tokenized\");\n        return ownerOf(assets[assetId].tokenId);\n    }\n\n    function isAssetTokenized(string memory assetId) public view returns (bool) {\n        return assets[assetId].isTokenized;\n    }\n\n\n}\n",
  "sourcePath": "/Users/gemechisguyo/Documents/MyProjects/Asset-Tokenization/backend/contracts/AssetTokenization.sol",
  "compiler": {
    "name": "solc",
    "version": "0.8.21+commit.d9974bed.Emscripten.clang"
  },
  "schemaVersion": "3.4.16",
  "updatedAt": "2023-12-23T09:10:55.014Z",
  "devdoc": {
    "events": {
      "Approval(address,address,uint256)": {
        "details": "Emitted when `owner` enables `approved` to manage the `tokenId` token."
      },
      "ApprovalForAll(address,address,bool)": {
        "details": "Emitted when `owner` enables or disables (`approved`) `operator` to manage all of its assets."
      },
      "Transfer(address,address,uint256)": {
        "details": "Emitted when `tokenId` token is transferred from `from` to `to`."
      }
    },
    "kind": "dev",
    "methods": {
      "approve(address,uint256)": {
        "details": "See {IERC721-approve}."
      },
      "balanceOf(address)": {
        "details": "See {IERC721-balanceOf}."
      },
      "getApproved(uint256)": {
        "details": "See {IERC721-getApproved}."
      },
      "isApprovedForAll(address,address)": {
        "details": "See {IERC721-isApprovedForAll}."
      },
      "name()": {
        "details": "See {IERC721Metadata-name}."
      },
      "ownerOf(uint256)": {
        "details": "See {IERC721-ownerOf}."
      },
      "safeTransferFrom(address,address,uint256)": {
        "details": "See {IERC721-safeTransferFrom}."
      },
      "safeTransferFrom(address,address,uint256,bytes)": {
        "details": "See {IERC721-safeTransferFrom}."
      },
      "setApprovalForAll(address,bool)": {
        "details": "See {IERC721-setApprovalForAll}."
      },
      "supportsInterface(bytes4)": {
        "details": "See {IERC165-supportsInterface}."
      },
      "symbol()": {
        "details": "See {IERC721Metadata-symbol}."
      },
      "tokenURI(uint256)": {
        "details": "See {IERC721Metadata-tokenURI}."
      },
      "transferFrom(address,address,uint256)": {
        "details": "See {IERC721-transferFrom}."
      }
    },
    "version": 1
  },
  "userdoc": {
    "kind": "user",
    "methods": {},
    "version": 1
  }
}