{
  "contractName": "Helloworld",
  "abi": [
    {
      "inputs": [
        {
          "internalType": "string",
          "name": "name",
          "type": "string"
        }
      ],
      "name": "sayHello",
      "outputs": [
        {
          "internalType": "string",
          "name": "",
          "type": "string"
        }
      ],
      "stateMutability": "pure",
      "type": "function"
    }
  ],
  "bytecode": "0x608060405234801561000f575f80fd5b5061036f8061001d5f395ff3fe608060405234801561000f575f80fd5b5060043610610029575f3560e01c8063c3a9b1c51461002d575b5f80fd5b610047600480360381019061004291906101d3565b61005d565b6040516100549190610294565b60405180910390f35b6060816040516020016100709190610314565b6040516020818303038152906040529050919050565b5f604051905090565b5f80fd5b5f80fd5b5f80fd5b5f80fd5b5f601f19601f8301169050919050565b7f4e487b71000000000000000000000000000000000000000000000000000000005f52604160045260245ffd5b6100e58261009f565b810181811067ffffffffffffffff82111715610104576101036100af565b5b80604052505050565b5f610116610086565b905061012282826100dc565b919050565b5f67ffffffffffffffff821115610141576101406100af565b5b61014a8261009f565b9050602081019050919050565b828183375f83830152505050565b5f61017761017284610127565b61010d565b9050828152602081018484840111156101935761019261009b565b5b61019e848285610157565b509392505050565b5f82601f8301126101ba576101b9610097565b5b81356101ca848260208601610165565b91505092915050565b5f602082840312156101e8576101e761008f565b5b5f82013567ffffffffffffffff81111561020557610204610093565b5b610211848285016101a6565b91505092915050565b5f81519050919050565b5f82825260208201905092915050565b5f5b83811015610251578082015181840152602081019050610236565b5f8484015250505050565b5f6102668261021a565b6102708185610224565b9350610280818560208601610234565b6102898161009f565b840191505092915050565b5f6020820190508181035f8301526102ac818461025c565b905092915050565b7f48656c6c6f3a0000000000000000000000000000000000000000000000000000815250565b5f81905092915050565b5f6102ee8261021a565b6102f881856102da565b9350610308818560208601610234565b80840191505092915050565b5f61031e826102b4565b60068201915061032e82846102e4565b91508190509291505056fea2646970667358221220165fb2eb339baa8d9cdba02f621d1e40c6df7141707b03a3d7bd01e585296e1764736f6c63430008150033",
  "immutableReferences": {},
  "source": "// SPDX-License-Identifier: MIT\npragma solidity ^0.8.19;\nimport \"@openzeppelin/contracts/token/ERC721/ERC721.sol\";\n\n// contract AssetTokenization is ERC721 {\n//     struct Asset {\n//         uint256 tokenId; // Unique token identifier\n//         string assetId; // Unique identifier for the asset\n//         bool isTokenized; // Indicates if the asset is tokenized\n//         string assetType; // Type of the asset\n//         address owner; // Owner of the asset\n//         // TODO: Add more fields\n//     }\n\n//     mapping(string => Asset) public assets;\n//     mapping(uint256 => string) private tokenToAssetId;\n//     uint256 private nextTokenId;\n\n//     event AssetRegistered(string assetId, address owner);\n//     event AssetTokenized(string assetId, address owner);\n\n//     constructor() ERC721(\"AssetToken\", \"AST\") {\n//         nextTokenId = 1;\n//     }\n\n//     function registerAsset(string memory assetId, string memory assetType) public {\n//         require(assets[assetId].owner == address(0), \"Asset already registered\");\n//         Asset memory newAsset = Asset(nextTokenId, assetId, false, assetType, msg.sender);\n//         assets[assetId] = newAsset;\n//         tokenToAssetId[nextTokenId] = assetId;\n//         nextTokenId++;\n//         emit AssetRegistered(assetId, msg.sender);\n//     }\n\n//     function tokenizeAsset(string memory assetId) public {\n//         require(assets[assetId].owner == msg.sender, \"Only the owner can tokenize the asset\");\n//         require(!assets[assetId].isTokenized, \"Asset is already tokenized\");\n//         assets[assetId].isTokenized = true;\n//         _mint(msg.sender, assets[assetId].tokenId);\n//         emit AssetTokenized(assetId, msg.sender);\n//     }\n\n//     function transferAsset(string memory assetId, address to) public {\n//         require(assets[assetId].isTokenized, \"Asset is not tokenized\");\n//         require(assets[assetId].owner == msg.sender, \"Only the owner can transfer the asset\");\n//         _transfer(msg.sender, to, assets[assetId].tokenId);\n//     }\n\n//     function getAssetOwner(string memory assetId) public view returns (address) {\n//         require(assets[assetId].isTokenized, \"Asset is not tokenized\");\n//         return ownerOf(assets[assetId].tokenId);\n//     }\n\n//     function isAssetTokenized(string memory assetId) public view returns (bool) {\n//         return assets[assetId].isTokenized;\n//     }\n\n//     // Overriding ERC721 functions for linking assets with tokens\n//     function _beforeTokenTransfer(address from, address to, uint256 tokenId, uint256 batchSize) internal override {\n//     require(to != address(0), \"ERC721: transfer to the zero address\");\n//     string memory assetId = tokenToAssetId[tokenId];\n//     require(assets[assetId].isTokenized, \"Asset is not tokenized\");\n//     assets[assetId].owner = to; // Update the owner in the Asset struct\n//     super._beforeTokenTransfer(from, to, tokenId, batchSize);\n// }\n\n// }\ncontract Helloworld {\n  function sayHello(string memory name) public pure returns (string memory) {\n    return string.concat(\"Hello:\", name);\n  }\n}",
  "sourcePath": "/Users/gemechisguyo/Documents/MyProjects/Asset-Tokenization/backend/contracts/AssetTokenization.sol",
  "compiler": {
    "name": "solc",
    "version": "0.8.21+commit.d9974bed.Emscripten.clang"
  },
  "schemaVersion": "3.4.16",
  "updatedAt": "2023-12-22T19:31:06.049Z",
  "devdoc": {
    "kind": "dev",
    "methods": {},
    "version": 1
  },
  "userdoc": {
    "kind": "user",
    "methods": {},
    "version": 1
  }
}